{
  "contractName": "Fundraiser",
  "abi": [
    {
      "inputs": [
        {
          "internalType": "string",
          "name": "_name",
          "type": "string"
        },
        {
          "internalType": "string",
          "name": "_url",
          "type": "string"
        },
        {
          "internalType": "string",
          "name": "_imageURL",
          "type": "string"
        },
        {
          "internalType": "string",
          "name": "_description",
          "type": "string"
        },
        {
          "internalType": "address payable",
          "name": "_beneficiary",
          "type": "address"
        },
        {
          "internalType": "address",
          "name": "_custodian",
          "type": "address"
        }
      ],
      "stateMutability": "nonpayable",
      "type": "constructor"
    },
    {
      "anonymous": false,
      "inputs": [
        {
          "indexed": true,
          "internalType": "address",
          "name": "donor",
          "type": "address"
        },
        {
          "indexed": false,
          "internalType": "uint256",
          "name": "value",
          "type": "uint256"
        }
      ],
      "name": "DonationReceived",
      "type": "event"
    },
    {
      "anonymous": false,
      "inputs": [
        {
          "indexed": true,
          "internalType": "address",
          "name": "previousOwner",
          "type": "address"
        },
        {
          "indexed": true,
          "internalType": "address",
          "name": "newOwner",
          "type": "address"
        }
      ],
      "name": "OwnershipTransferred",
      "type": "event"
    },
    {
      "anonymous": false,
      "inputs": [
        {
          "indexed": false,
          "internalType": "uint256",
          "name": "amount",
          "type": "uint256"
        }
      ],
      "name": "Withdraw",
      "type": "event"
    },
    {
      "inputs": [],
      "name": "beneficiary",
      "outputs": [
        {
          "internalType": "address payable",
          "name": "",
          "type": "address"
        }
      ],
      "stateMutability": "view",
      "type": "function"
    },
    {
      "inputs": [],
      "name": "description",
      "outputs": [
        {
          "internalType": "string",
          "name": "",
          "type": "string"
        }
      ],
      "stateMutability": "view",
      "type": "function"
    },
    {
      "inputs": [],
      "name": "donationsCount",
      "outputs": [
        {
          "internalType": "uint256",
          "name": "",
          "type": "uint256"
        }
      ],
      "stateMutability": "view",
      "type": "function"
    },
    {
      "inputs": [],
      "name": "imageURL",
      "outputs": [
        {
          "internalType": "string",
          "name": "",
          "type": "string"
        }
      ],
      "stateMutability": "view",
      "type": "function"
    },
    {
      "inputs": [],
      "name": "name",
      "outputs": [
        {
          "internalType": "string",
          "name": "",
          "type": "string"
        }
      ],
      "stateMutability": "view",
      "type": "function"
    },
    {
      "inputs": [],
      "name": "owner",
      "outputs": [
        {
          "internalType": "address",
          "name": "",
          "type": "address"
        }
      ],
      "stateMutability": "view",
      "type": "function"
    },
    {
      "inputs": [],
      "name": "renounceOwnership",
      "outputs": [],
      "stateMutability": "nonpayable",
      "type": "function"
    },
    {
      "inputs": [],
      "name": "totalDonations",
      "outputs": [
        {
          "internalType": "uint256",
          "name": "",
          "type": "uint256"
        }
      ],
      "stateMutability": "view",
      "type": "function"
    },
    {
      "inputs": [
        {
          "internalType": "address",
          "name": "newOwner",
          "type": "address"
        }
      ],
      "name": "transferOwnership",
      "outputs": [],
      "stateMutability": "nonpayable",
      "type": "function"
    },
    {
      "inputs": [],
      "name": "url",
      "outputs": [
        {
          "internalType": "string",
          "name": "",
          "type": "string"
        }
      ],
      "stateMutability": "view",
      "type": "function"
    },
    {
      "inputs": [
        {
          "internalType": "address payable",
          "name": "_beneficiary",
          "type": "address"
        }
      ],
      "name": "setBeneficiary",
      "outputs": [],
      "stateMutability": "nonpayable",
      "type": "function"
    },
    {
      "inputs": [],
      "name": "myDonationsCount",
      "outputs": [
        {
          "internalType": "uint256",
          "name": "",
          "type": "uint256"
        }
      ],
      "stateMutability": "view",
      "type": "function"
    },
    {
      "inputs": [],
      "name": "donate",
      "outputs": [],
      "stateMutability": "payable",
      "type": "function"
    },
    {
      "inputs": [],
      "name": "myDonations",
      "outputs": [
        {
          "internalType": "uint256[]",
          "name": "values",
          "type": "uint256[]"
        },
        {
          "internalType": "uint256[]",
          "name": "dates",
          "type": "uint256[]"
        }
      ],
      "stateMutability": "view",
      "type": "function"
    },
    {
      "inputs": [],
      "name": "withdraw",
      "outputs": [],
      "stateMutability": "nonpayable",
      "type": "function"
    }
  ],
  "bytecode": "0x60806040523480156200001157600080fd5b506040516200179e3803806200179e833981810160405281019062000037919062000335565b620000576200004b6200011960201b60201c565b6200012160201b60201c565b85600490805190602001906200006f929190620001e5565b50846005908051906020019062000088929190620001e5565b508360069080519060200190620000a1929190620001e5565b508260079080519060200190620000ba929190620001e5565b5081600860006101000a81548173ffffffffffffffffffffffffffffffffffffffff021916908373ffffffffffffffffffffffffffffffffffffffff1602179055506200010d816200012160201b60201c565b505050505050620005dc565b600033905090565b60008060009054906101000a900473ffffffffffffffffffffffffffffffffffffffff169050816000806101000a81548173ffffffffffffffffffffffffffffffffffffffff021916908373ffffffffffffffffffffffffffffffffffffffff1602179055508173ffffffffffffffffffffffffffffffffffffffff168173ffffffffffffffffffffffffffffffffffffffff167f8be0079c531659141344cd1fd0a4f28419497f9722a3daafe3b4186f6b6457e060405160405180910390a35050565b828054620001f39062000514565b90600052602060002090601f01602090048101928262000217576000855562000263565b82601f106200023257805160ff191683800117855562000263565b8280016001018555821562000263579182015b828111156200026257825182559160200191906001019062000245565b5b50905062000272919062000276565b5090565b5b808211156200029157600081600090555060010162000277565b5090565b6000620002ac620002a68462000463565b6200042f565b905082815260208101848484011115620002c557600080fd5b620002d2848285620004de565b509392505050565b600081519050620002eb81620005a8565b92915050565b6000815190506200030281620005c2565b92915050565b600082601f8301126200031a57600080fd5b81516200032c84826020860162000295565b91505092915050565b60008060008060008060c087890312156200034f57600080fd5b600087015167ffffffffffffffff8111156200036a57600080fd5b6200037889828a0162000308565b965050602087015167ffffffffffffffff8111156200039657600080fd5b620003a489828a0162000308565b955050604087015167ffffffffffffffff811115620003c257600080fd5b620003d089828a0162000308565b945050606087015167ffffffffffffffff811115620003ee57600080fd5b620003fc89828a0162000308565b93505060806200040f89828a01620002f1565b92505060a06200042289828a01620002da565b9150509295509295509295565b6000604051905081810181811067ffffffffffffffff8211171562000459576200045862000579565b5b8060405250919050565b600067ffffffffffffffff82111562000481576200048062000579565b5b601f19601f8301169050602081019050919050565b6000620004a382620004be565b9050919050565b6000620004b782620004be565b9050919050565b600073ffffffffffffffffffffffffffffffffffffffff82169050919050565b60005b83811015620004fe578082015181840152602081019050620004e1565b838111156200050e576000848401525b50505050565b600060028204905060018216806200052d57607f821691505b602082108114156200054457620005436200054a565b5b50919050565b7f4e487b7100000000000000000000000000000000000000000000000000000000600052602260045260246000fd5b7f4e487b7100000000000000000000000000000000000000000000000000000000600052604160045260246000fd5b620005b38162000496565b8114620005bf57600080fd5b50565b620005cd81620004aa565b8114620005d957600080fd5b50565b6111b280620005ec6000396000f3fe6080604052600436106100e85760003560e01c80635600f04f1161008a578063b90497e011610059578063b90497e01461029d578063de2ed893146102c8578063ed88c68e146102f3578063f2fde38b146102fd576100e8565b80635600f04f14610205578063715018a6146102305780637284e416146102475780638da5cb5b14610272576100e8565b80631c31f710116100c65780631c31f7101461016f5780631f5225951461019857806338af3eed146101c35780633ccfd60b146101ee576100e8565b80630180b97c146100ed57806306fdde03146101185780631a57f7b414610143575b600080fd5b3480156100f957600080fd5b50610102610326565b60405161010f9190610f1d565b60405180910390f35b34801561012457600080fd5b5061012d610370565b60405161013a9190610ebb565b60405180910390f35b34801561014f57600080fd5b506101586103fe565b604051610166929190610e84565b60405180910390f35b34801561017b57600080fd5b5061019660048036038101906101919190610c94565b610631565b005b3480156101a457600080fd5b506101ad61067d565b6040516101ba9190610f1d565b60405180910390f35b3480156101cf57600080fd5b506101d8610683565b6040516101e59190610e69565b60405180910390f35b3480156101fa57600080fd5b506102036106a9565b005b34801561021157600080fd5b5061021a610759565b6040516102279190610ebb565b60405180910390f35b34801561023c57600080fd5b506102456107e7565b005b34801561025357600080fd5b5061025c6107fb565b6040516102699190610ebb565b60405180910390f35b34801561027e57600080fd5b50610287610889565b6040516102949190610e4e565b60405180910390f35b3480156102a957600080fd5b506102b26108b2565b6040516102bf9190610ebb565b60405180910390f35b3480156102d457600080fd5b506102dd610940565b6040516102ea9190610f1d565b60405180910390f35b6102fb610946565b005b34801561030957600080fd5b50610324600480360381019061031f9190610c6b565b610a5d565b005b6000600160003373ffffffffffffffffffffffffffffffffffffffff1673ffffffffffffffffffffffffffffffffffffffff16815260200190815260200160002080549050905090565b6004805461037d90611064565b80601f01602080910402602001604051908101604052809291908181526020018280546103a990611064565b80156103f65780601f106103cb576101008083540402835291602001916103f6565b820191906000526020600020905b8154815290600101906020018083116103d957829003601f168201915b505050505081565b606080600061040b610326565b90508067ffffffffffffffff81111561044d577f4e487b7100000000000000000000000000000000000000000000000000000000600052604160045260246000fd5b60405190808252806020026020018201604052801561047b5781602001602082028036833780820191505090505b5092508067ffffffffffffffff8111156104be577f4e487b7100000000000000000000000000000000000000000000000000000000600052604160045260246000fd5b6040519080825280602002602001820160405280156104ec5781602001602082028036833780820191505090505b50915060005b8181101561062b576000600160003373ffffffffffffffffffffffffffffffffffffffff1673ffffffffffffffffffffffffffffffffffffffff1681526020019081526020016000208281548110610573577f4e487b7100000000000000000000000000000000000000000000000000000000600052603260045260246000fd5b9060005260206000209060020201905080600001548583815181106105c1577f4e487b7100000000000000000000000000000000000000000000000000000000600052603260045260246000fd5b602002602001018181525050806001015484838151811061060b577f4e487b7100000000000000000000000000000000000000000000000000000000600052603260045260246000fd5b60200260200101818152505050808061062390611096565b9150506104f2565b50509091565b610639610ae1565b80600860006101000a81548173ffffffffffffffffffffffffffffffffffffffff021916908373ffffffffffffffffffffffffffffffffffffffff16021790555050565b60035481565b600860009054906101000a900473ffffffffffffffffffffffffffffffffffffffff1681565b6106b1610ae1565b6000479050600860009054906101000a900473ffffffffffffffffffffffffffffffffffffffff1673ffffffffffffffffffffffffffffffffffffffff166108fc829081150290604051600060405180830381858888f1935050505015801561071e573d6000803e3d6000fd5b507f5b6b431d4476a211bb7d41c20d1aab9ae2321deee0d20be3d9fc9b1093fa6e3d8160405161074e9190610f1d565b60405180910390a150565b6005805461076690611064565b80601f016020809104026020016040519081016040528092919081815260200182805461079290611064565b80156107df5780601f106107b4576101008083540402835291602001916107df565b820191906000526020600020905b8154815290600101906020018083116107c257829003601f168201915b505050505081565b6107ef610ae1565b6107f96000610b5f565b565b6007805461080890611064565b80601f016020809104026020016040519081016040528092919081815260200182805461083490611064565b80156108815780601f1061085657610100808354040283529160200191610881565b820191906000526020600020905b81548152906001019060200180831161086457829003601f168201915b505050505081565b60008060009054906101000a900473ffffffffffffffffffffffffffffffffffffffff16905090565b600680546108bf90611064565b80601f01602080910402602001604051908101604052809291908181526020018280546108eb90611064565b80156109385780601f1061090d57610100808354040283529160200191610938565b820191906000526020600020905b81548152906001019060200180831161091b57829003601f168201915b505050505081565b60025481565b60006040518060400160405280348152602001428152509050600160003373ffffffffffffffffffffffffffffffffffffffff1673ffffffffffffffffffffffffffffffffffffffff168152602001908152602001600020819080600181540180825580915050600190039060005260206000209060020201600090919091909150600082015181600001556020820151816001015550506109f334600254610c2390919063ffffffff16565b5060036000815480929190610a0790611096565b91905055503373ffffffffffffffffffffffffffffffffffffffff167f264f630d9efa0d07053a31163641d9fcc0adafc9d9e76f1c37c2ce3a558d2c5234604051610a529190610f1d565b60405180910390a250565b610a65610ae1565b600073ffffffffffffffffffffffffffffffffffffffff168173ffffffffffffffffffffffffffffffffffffffff161415610ad5576040517f08c379a0000000000000000000000000000000000000000000000000000000008152600401610acc90610edd565b60405180910390fd5b610ade81610b5f565b50565b610ae9610c39565b73ffffffffffffffffffffffffffffffffffffffff16610b07610889565b73ffffffffffffffffffffffffffffffffffffffff1614610b5d576040517f08c379a0000000000000000000000000000000000000000000000000000000008152600401610b5490610efd565b60405180910390fd5b565b60008060009054906101000a900473ffffffffffffffffffffffffffffffffffffffff169050816000806101000a81548173ffffffffffffffffffffffffffffffffffffffff021916908373ffffffffffffffffffffffffffffffffffffffff1602179055508173ffffffffffffffffffffffffffffffffffffffff168173ffffffffffffffffffffffffffffffffffffffff167f8be0079c531659141344cd1fd0a4f28419497f9722a3daafe3b4186f6b6457e060405160405180910390a35050565b60008183610c319190610f8d565b905092915050565b600033905090565b600081359050610c508161114e565b92915050565b600081359050610c6581611165565b92915050565b600060208284031215610c7d57600080fd5b6000610c8b84828501610c41565b91505092915050565b600060208284031215610ca657600080fd5b6000610cb484828501610c56565b91505092915050565b6000610cc98383610e30565b60208301905092915050565b610cde81610ff5565b82525050565b610ced81610fe3565b82525050565b6000610cfe82610f48565b610d088185610f6b565b9350610d1383610f38565b8060005b83811015610d44578151610d2b8882610cbd565b9750610d3683610f5e565b925050600181019050610d17565b5085935050505092915050565b6000610d5c82610f53565b610d668185610f7c565b9350610d76818560208601611031565b610d7f8161113d565b840191505092915050565b6000610d97602683610f7c565b91507f4f776e61626c653a206e6577206f776e657220697320746865207a65726f206160008301527f64647265737300000000000000000000000000000000000000000000000000006020830152604082019050919050565b6000610dfd602083610f7c565b91507f4f776e61626c653a2063616c6c6572206973206e6f7420746865206f776e65726000830152602082019050919050565b610e3981611027565b82525050565b610e4881611027565b82525050565b6000602082019050610e636000830184610ce4565b92915050565b6000602082019050610e7e6000830184610cd5565b92915050565b60006040820190508181036000830152610e9e8185610cf3565b90508181036020830152610eb28184610cf3565b90509392505050565b60006020820190508181036000830152610ed58184610d51565b905092915050565b60006020820190508181036000830152610ef681610d8a565b9050919050565b60006020820190508181036000830152610f1681610df0565b9050919050565b6000602082019050610f326000830184610e3f565b92915050565b6000819050602082019050919050565b600081519050919050565b600081519050919050565b6000602082019050919050565b600082825260208201905092915050565b600082825260208201905092915050565b6000610f9882611027565b9150610fa383611027565b9250827fffffffffffffffffffffffffffffffffffffffffffffffffffffffffffffffff03821115610fd857610fd76110df565b5b828201905092915050565b6000610fee82611007565b9050919050565b600061100082611007565b9050919050565b600073ffffffffffffffffffffffffffffffffffffffff82169050919050565b6000819050919050565b60005b8381101561104f578082015181840152602081019050611034565b8381111561105e576000848401525b50505050565b6000600282049050600182168061107c57607f821691505b602082108114156110905761108f61110e565b5b50919050565b60006110a182611027565b91507fffffffffffffffffffffffffffffffffffffffffffffffffffffffffffffffff8214156110d4576110d36110df565b5b600182019050919050565b7f4e487b7100000000000000000000000000000000000000000000000000000000600052601160045260246000fd5b7f4e487b7100000000000000000000000000000000000000000000000000000000600052602260045260246000fd5b6000601f19601f8301169050919050565b61115781610fe3565b811461116257600080fd5b50565b61116e81610ff5565b811461117957600080fd5b5056fea2646970667358221220e12087aeecde3bfca74542bb6790b06982143bed4b2f89d4a98a4f845c29d3ff64736f6c63430008000033",
  "immutableReferences": {},
  "source": "// SPDX-License-Identifier: MIT\npragma solidity ^0.8.0;\n\nimport '@openzeppelin/contracts/access/Ownable.sol';\nimport '@openzeppelin/contracts/utils/math/SafeMath.sol';\n\ncontract Fundraiser is Ownable {\n  using SafeMath for uint256;\n\n  struct Donation {\n    uint256 value;\n    uint256 date;\n  }\n  mapping(address => Donation[]) private _donations;\n  uint256 public totalDonations;\n  uint256 public donationsCount;\n\n  event DonationReceived(address indexed donor, uint256 value);\n  event Withdraw(uint256 amount);\n\n  string public name;\n  string public url;\n  string public imageURL;\n  string public description;\n\n  address payable public beneficiary;\n\n  constructor(\n    string memory _name,\n    string memory _url,\n    string memory _imageURL,\n    string memory _description,\n    address payable _beneficiary,\n    address _custodian\n  ) {\n    name = _name;\n    url = _url;\n    imageURL = _imageURL;\n    description = _description;\n    beneficiary = _beneficiary;\n    _transferOwnership(_custodian);\n  }\n\n  function setBeneficiary(address payable _beneficiary) public onlyOwner {\n    beneficiary = _beneficiary;\n  }\n\n  function myDonationsCount() public view returns (uint256) {\n    return _donations[msg.sender].length;\n  }\n\n  function donate() public payable {\n    Donation memory donation = Donation({\n      value: msg.value,\n      date: block.timestamp\n    });\n    _donations[msg.sender].push(donation);\n    totalDonations.add(msg.value);\n    donationsCount++;\n    emit DonationReceived(msg.sender, msg.value);\n  }\n\n  function myDonations()\n    public\n    view\n    returns (uint256[] memory values, uint256[] memory dates)\n  {\n    uint256 count = myDonationsCount();\n    values = new uint256[](count);\n    dates = new uint256[](count);\n    for (uint256 i = 0; i < count; i++) {\n      Donation storage donation = _donations[msg.sender][i];\n      values[i] = donation.value;\n      dates[i] = donation.date;\n    }\n    return (values, dates);\n  }\n\n  function withdraw() public onlyOwner {\n    uint256 balance = address(this).balance;\n    beneficiary.transfer(balance);\n    emit Withdraw(balance);\n  }\n}\n",
  "sourcePath": "/Users/ac12644/Desktop/fundraiser/contracts/Fundraiser.sol",
  "compiler": {
    "name": "solc",
    "version": "0.8.0+commit.c7dfd78e.Emscripten.clang"
  },
  "schemaVersion": "3.4.7",
  "updatedAt": "2022-07-04T19:38:46.575Z",
  "devdoc": {
    "kind": "dev",
    "methods": {
      "owner()": {
        "details": "Returns the address of the current owner."
      },
      "renounceOwnership()": {
        "details": "Leaves the contract without owner. It will not be possible to call `onlyOwner` functions anymore. Can only be called by the current owner. NOTE: Renouncing ownership will leave the contract without an owner, thereby removing any functionality that is only available to the owner."
      },
      "transferOwnership(address)": {
        "details": "Transfers ownership of the contract to a new account (`newOwner`). Can only be called by the current owner."
      }
    },
    "version": 1
  },
  "userdoc": {
    "kind": "user",
    "methods": {},
    "version": 1
  }
}