{
  "contractName": "FundraiserFactory",
  "abi": [
    {
      "anonymous": false,
      "inputs": [
        {
          "indexed": true,
          "internalType": "contract Fundraiser",
          "name": "fundraiser",
          "type": "address"
        },
        {
          "indexed": true,
          "internalType": "address",
          "name": "owner",
          "type": "address"
        }
      ],
      "name": "FundraiserCreated",
      "type": "event"
    },
    {
      "inputs": [],
      "name": "fundraisersCount",
      "outputs": [
        {
          "internalType": "uint256",
          "name": "",
          "type": "uint256"
        }
      ],
      "stateMutability": "view",
      "type": "function",
      "constant": true
    },
    {
      "inputs": [
        {
          "internalType": "string",
          "name": "name",
          "type": "string"
        },
        {
          "internalType": "string",
          "name": "url",
          "type": "string"
        },
        {
          "internalType": "string",
          "name": "imageURL",
          "type": "string"
        },
        {
          "internalType": "string",
          "name": "description",
          "type": "string"
        },
        {
          "internalType": "address payable",
          "name": "beneficiary",
          "type": "address"
        }
      ],
      "name": "createFundraiser",
      "outputs": [],
      "stateMutability": "nonpayable",
      "type": "function"
    },
    {
      "inputs": [
        {
          "internalType": "uint256",
          "name": "limit",
          "type": "uint256"
        },
        {
          "internalType": "uint256",
          "name": "offset",
          "type": "uint256"
        }
      ],
      "name": "fundraisers",
      "outputs": [
        {
          "internalType": "contract Fundraiser[]",
          "name": "coll",
          "type": "address[]"
        }
      ],
      "stateMutability": "view",
      "type": "function",
      "constant": true
    }
  ],
  "bytecode": "0x608060405234801561001057600080fd5b506122d7806100206000396000f3fe60806040523480156200001157600080fd5b5060043610620000465760003560e01c806311d752ad146200004b578063704914f8146200006b5780639d3b435514620000a1575b600080fd5b620000696004803603810190620000639190620004a1565b620000c3565b005b62000089600480360381019062000083919062000587565b620001cf565b60405162000098919062000713565b60405180910390f35b620000ab620003e7565b604051620000ba9190620007e2565b60405180910390f35b6000858585858533604051620000d990620003f3565b620000ea9695949392919062000737565b604051809103906000f08015801562000107573d6000803e3d6000fd5b5090506000819080600181540180825580915050600190039060005260206000200160009091909190916101000a81548173ffffffffffffffffffffffffffffffffffffffff021916908373ffffffffffffffffffffffffffffffffffffffff1602179055503373ffffffffffffffffffffffffffffffffffffffff168173ffffffffffffffffffffffffffffffffffffffff167fa2398daac0c8053a1e3c0280916c2ec6bc884f0959c27e639a4db829b7eabfb160405160405180910390a3505050505050565b6060620001db620003e7565b82111562000220576040517f08c379a00000000000000000000000000000000000000000000000000000000081526004016200021790620007c0565b60405180910390fd5b6000826200022d620003e7565b62000239919062000918565b90508381106200024a57836200024c565b805b9050601481106200025f57601462000261565b805b90508067ffffffffffffffff811115620002a4577f4e487b7100000000000000000000000000000000000000000000000000000000600052604160045260246000fd5b604051908082528060200260200182016040528015620002d35781602001602082028036833780820191505090505b50915060005b81811015620003df5760008185620002f29190620008bb565b815481106200032a577f4e487b7100000000000000000000000000000000000000000000000000000000600052603260045260246000fd5b9060005260206000200160009054906101000a900473ffffffffffffffffffffffffffffffffffffffff168382815181106200038f577f4e487b7100000000000000000000000000000000000000000000000000000000600052603260045260246000fd5b602002602001019073ffffffffffffffffffffffffffffffffffffffff16908173ffffffffffffffffffffffffffffffffffffffff16815250508080620003d69062000a12565b915050620002d9565b505092915050565b60008080549050905090565b61179e8062000b0483390190565b600062000418620004128462000833565b620007ff565b9050828152602081018484840111156200043157600080fd5b6200043e848285620009cd565b509392505050565b600081359050620004578162000acf565b92915050565b600082601f8301126200046f57600080fd5b81356200048184826020860162000401565b91505092915050565b6000813590506200049b8162000ae9565b92915050565b600080600080600060a08688031215620004ba57600080fd5b600086013567ffffffffffffffff811115620004d557600080fd5b620004e3888289016200045d565b955050602086013567ffffffffffffffff8111156200050157600080fd5b6200050f888289016200045d565b945050604086013567ffffffffffffffff8111156200052d57600080fd5b6200053b888289016200045d565b935050606086013567ffffffffffffffff8111156200055957600080fd5b62000567888289016200045d565b92505060806200057a8882890162000446565b9150509295509295909350565b600080604083850312156200059b57600080fd5b6000620005ab858286016200048a565b9250506020620005be858286016200048a565b9150509250929050565b6000620005d683836200066e565b60208301905092915050565b620005ed8162000967565b82525050565b620005fe8162000953565b82525050565b6000620006118262000876565b6200061d818562000899565b93506200062a8362000866565b8060005b8381101562000661578151620006458882620005c8565b975062000652836200088c565b9250506001810190506200062e565b5085935050505092915050565b6200067981620009a5565b82525050565b60006200068c8262000881565b620006988185620008aa565b9350620006aa818560208601620009dc565b620006b58162000abe565b840191505092915050565b6000620006cf601483620008aa565b91507f6f6666736574206f7574206f6620626f756e64730000000000000000000000006000830152602082019050919050565b6200070d816200099b565b82525050565b600060208201905081810360008301526200072f818462000604565b905092915050565b600060c08201905081810360008301526200075381896200067f565b905081810360208301526200076981886200067f565b905081810360408301526200077f81876200067f565b905081810360608301526200079581866200067f565b9050620007a66080830185620005e2565b620007b560a0830184620005f3565b979650505050505050565b60006020820190508181036000830152620007db81620006c0565b9050919050565b6000602082019050620007f9600083018462000702565b92915050565b6000604051905081810181811067ffffffffffffffff8211171562000829576200082862000a8f565b5b8060405250919050565b600067ffffffffffffffff82111562000851576200085062000a8f565b5b601f19601f8301169050602081019050919050565b6000819050602082019050919050565b600081519050919050565b600081519050919050565b6000602082019050919050565b600082825260208201905092915050565b600082825260208201905092915050565b6000620008c8826200099b565b9150620008d5836200099b565b9250827fffffffffffffffffffffffffffffffffffffffffffffffffffffffffffffffff038211156200090d576200090c62000a60565b5b828201905092915050565b600062000925826200099b565b915062000932836200099b565b92508282101562000948576200094762000a60565b5b828203905092915050565b600062000960826200097b565b9050919050565b600062000974826200097b565b9050919050565b600073ffffffffffffffffffffffffffffffffffffffff82169050919050565b6000819050919050565b6000620009b282620009b9565b9050919050565b6000620009c6826200097b565b9050919050565b82818337600083830152505050565b60005b83811015620009fc578082015181840152602081019050620009df565b8381111562000a0c576000848401525b50505050565b600062000a1f826200099b565b91507fffffffffffffffffffffffffffffffffffffffffffffffffffffffffffffffff82141562000a555762000a5462000a60565b5b600182019050919050565b7f4e487b7100000000000000000000000000000000000000000000000000000000600052601160045260246000fd5b7f4e487b7100000000000000000000000000000000000000000000000000000000600052604160045260246000fd5b6000601f19601f8301169050919050565b62000ada8162000967565b811462000ae657600080fd5b50565b62000af4816200099b565b811462000b0057600080fd5b5056fe60806040523480156200001157600080fd5b506040516200179e3803806200179e833981810160405281019062000037919062000335565b620000576200004b6200011960201b60201c565b6200012160201b60201c565b85600490805190602001906200006f929190620001e5565b50846005908051906020019062000088929190620001e5565b508360069080519060200190620000a1929190620001e5565b508260079080519060200190620000ba929190620001e5565b5081600860006101000a81548173ffffffffffffffffffffffffffffffffffffffff021916908373ffffffffffffffffffffffffffffffffffffffff1602179055506200010d816200012160201b60201c565b505050505050620005dc565b600033905090565b60008060009054906101000a900473ffffffffffffffffffffffffffffffffffffffff169050816000806101000a81548173ffffffffffffffffffffffffffffffffffffffff021916908373ffffffffffffffffffffffffffffffffffffffff1602179055508173ffffffffffffffffffffffffffffffffffffffff168173ffffffffffffffffffffffffffffffffffffffff167f8be0079c531659141344cd1fd0a4f28419497f9722a3daafe3b4186f6b6457e060405160405180910390a35050565b828054620001f39062000514565b90600052602060002090601f01602090048101928262000217576000855562000263565b82601f106200023257805160ff191683800117855562000263565b8280016001018555821562000263579182015b828111156200026257825182559160200191906001019062000245565b5b50905062000272919062000276565b5090565b5b808211156200029157600081600090555060010162000277565b5090565b6000620002ac620002a68462000463565b6200042f565b905082815260208101848484011115620002c557600080fd5b620002d2848285620004de565b509392505050565b600081519050620002eb81620005a8565b92915050565b6000815190506200030281620005c2565b92915050565b600082601f8301126200031a57600080fd5b81516200032c84826020860162000295565b91505092915050565b60008060008060008060c087890312156200034f57600080fd5b600087015167ffffffffffffffff8111156200036a57600080fd5b6200037889828a0162000308565b965050602087015167ffffffffffffffff8111156200039657600080fd5b620003a489828a0162000308565b955050604087015167ffffffffffffffff811115620003c257600080fd5b620003d089828a0162000308565b945050606087015167ffffffffffffffff811115620003ee57600080fd5b620003fc89828a0162000308565b93505060806200040f89828a01620002f1565b92505060a06200042289828a01620002da565b9150509295509295509295565b6000604051905081810181811067ffffffffffffffff8211171562000459576200045862000579565b5b8060405250919050565b600067ffffffffffffffff82111562000481576200048062000579565b5b601f19601f8301169050602081019050919050565b6000620004a382620004be565b9050919050565b6000620004b782620004be565b9050919050565b600073ffffffffffffffffffffffffffffffffffffffff82169050919050565b60005b83811015620004fe578082015181840152602081019050620004e1565b838111156200050e576000848401525b50505050565b600060028204905060018216806200052d57607f821691505b602082108114156200054457620005436200054a565b5b50919050565b7f4e487b7100000000000000000000000000000000000000000000000000000000600052602260045260246000fd5b7f4e487b7100000000000000000000000000000000000000000000000000000000600052604160045260246000fd5b620005b38162000496565b8114620005bf57600080fd5b50565b620005cd81620004aa565b8114620005d957600080fd5b50565b6111b280620005ec6000396000f3fe6080604052600436106100e85760003560e01c80635600f04f1161008a578063b90497e011610059578063b90497e01461029d578063de2ed893146102c8578063ed88c68e146102f3578063f2fde38b146102fd576100e8565b80635600f04f14610205578063715018a6146102305780637284e416146102475780638da5cb5b14610272576100e8565b80631c31f710116100c65780631c31f7101461016f5780631f5225951461019857806338af3eed146101c35780633ccfd60b146101ee576100e8565b80630180b97c146100ed57806306fdde03146101185780631a57f7b414610143575b600080fd5b3480156100f957600080fd5b50610102610326565b60405161010f9190610f1d565b60405180910390f35b34801561012457600080fd5b5061012d610370565b60405161013a9190610ebb565b60405180910390f35b34801561014f57600080fd5b506101586103fe565b604051610166929190610e84565b60405180910390f35b34801561017b57600080fd5b5061019660048036038101906101919190610c94565b610631565b005b3480156101a457600080fd5b506101ad61067d565b6040516101ba9190610f1d565b60405180910390f35b3480156101cf57600080fd5b506101d8610683565b6040516101e59190610e69565b60405180910390f35b3480156101fa57600080fd5b506102036106a9565b005b34801561021157600080fd5b5061021a610759565b6040516102279190610ebb565b60405180910390f35b34801561023c57600080fd5b506102456107e7565b005b34801561025357600080fd5b5061025c6107fb565b6040516102699190610ebb565b60405180910390f35b34801561027e57600080fd5b50610287610889565b6040516102949190610e4e565b60405180910390f35b3480156102a957600080fd5b506102b26108b2565b6040516102bf9190610ebb565b60405180910390f35b3480156102d457600080fd5b506102dd610940565b6040516102ea9190610f1d565b60405180910390f35b6102fb610946565b005b34801561030957600080fd5b50610324600480360381019061031f9190610c6b565b610a5d565b005b6000600160003373ffffffffffffffffffffffffffffffffffffffff1673ffffffffffffffffffffffffffffffffffffffff16815260200190815260200160002080549050905090565b6004805461037d90611064565b80601f01602080910402602001604051908101604052809291908181526020018280546103a990611064565b80156103f65780601f106103cb576101008083540402835291602001916103f6565b820191906000526020600020905b8154815290600101906020018083116103d957829003601f168201915b505050505081565b606080600061040b610326565b90508067ffffffffffffffff81111561044d577f4e487b7100000000000000000000000000000000000000000000000000000000600052604160045260246000fd5b60405190808252806020026020018201604052801561047b5781602001602082028036833780820191505090505b5092508067ffffffffffffffff8111156104be577f4e487b7100000000000000000000000000000000000000000000000000000000600052604160045260246000fd5b6040519080825280602002602001820160405280156104ec5781602001602082028036833780820191505090505b50915060005b8181101561062b576000600160003373ffffffffffffffffffffffffffffffffffffffff1673ffffffffffffffffffffffffffffffffffffffff1681526020019081526020016000208281548110610573577f4e487b7100000000000000000000000000000000000000000000000000000000600052603260045260246000fd5b9060005260206000209060020201905080600001548583815181106105c1577f4e487b7100000000000000000000000000000000000000000000000000000000600052603260045260246000fd5b602002602001018181525050806001015484838151811061060b577f4e487b7100000000000000000000000000000000000000000000000000000000600052603260045260246000fd5b60200260200101818152505050808061062390611096565b9150506104f2565b50509091565b610639610ae1565b80600860006101000a81548173ffffffffffffffffffffffffffffffffffffffff021916908373ffffffffffffffffffffffffffffffffffffffff16021790555050565b60035481565b600860009054906101000a900473ffffffffffffffffffffffffffffffffffffffff1681565b6106b1610ae1565b6000479050600860009054906101000a900473ffffffffffffffffffffffffffffffffffffffff1673ffffffffffffffffffffffffffffffffffffffff166108fc829081150290604051600060405180830381858888f1935050505015801561071e573d6000803e3d6000fd5b507f5b6b431d4476a211bb7d41c20d1aab9ae2321deee0d20be3d9fc9b1093fa6e3d8160405161074e9190610f1d565b60405180910390a150565b6005805461076690611064565b80601f016020809104026020016040519081016040528092919081815260200182805461079290611064565b80156107df5780601f106107b4576101008083540402835291602001916107df565b820191906000526020600020905b8154815290600101906020018083116107c257829003601f168201915b505050505081565b6107ef610ae1565b6107f96000610b5f565b565b6007805461080890611064565b80601f016020809104026020016040519081016040528092919081815260200182805461083490611064565b80156108815780601f1061085657610100808354040283529160200191610881565b820191906000526020600020905b81548152906001019060200180831161086457829003601f168201915b505050505081565b60008060009054906101000a900473ffffffffffffffffffffffffffffffffffffffff16905090565b600680546108bf90611064565b80601f01602080910402602001604051908101604052809291908181526020018280546108eb90611064565b80156109385780601f1061090d57610100808354040283529160200191610938565b820191906000526020600020905b81548152906001019060200180831161091b57829003601f168201915b505050505081565b60025481565b60006040518060400160405280348152602001428152509050600160003373ffffffffffffffffffffffffffffffffffffffff1673ffffffffffffffffffffffffffffffffffffffff168152602001908152602001600020819080600181540180825580915050600190039060005260206000209060020201600090919091909150600082015181600001556020820151816001015550506109f334600254610c2390919063ffffffff16565b5060036000815480929190610a0790611096565b91905055503373ffffffffffffffffffffffffffffffffffffffff167f264f630d9efa0d07053a31163641d9fcc0adafc9d9e76f1c37c2ce3a558d2c5234604051610a529190610f1d565b60405180910390a250565b610a65610ae1565b600073ffffffffffffffffffffffffffffffffffffffff168173ffffffffffffffffffffffffffffffffffffffff161415610ad5576040517f08c379a0000000000000000000000000000000000000000000000000000000008152600401610acc90610edd565b60405180910390fd5b610ade81610b5f565b50565b610ae9610c39565b73ffffffffffffffffffffffffffffffffffffffff16610b07610889565b73ffffffffffffffffffffffffffffffffffffffff1614610b5d576040517f08c379a0000000000000000000000000000000000000000000000000000000008152600401610b5490610efd565b60405180910390fd5b565b60008060009054906101000a900473ffffffffffffffffffffffffffffffffffffffff169050816000806101000a81548173ffffffffffffffffffffffffffffffffffffffff021916908373ffffffffffffffffffffffffffffffffffffffff1602179055508173ffffffffffffffffffffffffffffffffffffffff168173ffffffffffffffffffffffffffffffffffffffff167f8be0079c531659141344cd1fd0a4f28419497f9722a3daafe3b4186f6b6457e060405160405180910390a35050565b60008183610c319190610f8d565b905092915050565b600033905090565b600081359050610c508161114e565b92915050565b600081359050610c6581611165565b92915050565b600060208284031215610c7d57600080fd5b6000610c8b84828501610c41565b91505092915050565b600060208284031215610ca657600080fd5b6000610cb484828501610c56565b91505092915050565b6000610cc98383610e30565b60208301905092915050565b610cde81610ff5565b82525050565b610ced81610fe3565b82525050565b6000610cfe82610f48565b610d088185610f6b565b9350610d1383610f38565b8060005b83811015610d44578151610d2b8882610cbd565b9750610d3683610f5e565b925050600181019050610d17565b5085935050505092915050565b6000610d5c82610f53565b610d668185610f7c565b9350610d76818560208601611031565b610d7f8161113d565b840191505092915050565b6000610d97602683610f7c565b91507f4f776e61626c653a206e6577206f776e657220697320746865207a65726f206160008301527f64647265737300000000000000000000000000000000000000000000000000006020830152604082019050919050565b6000610dfd602083610f7c565b91507f4f776e61626c653a2063616c6c6572206973206e6f7420746865206f776e65726000830152602082019050919050565b610e3981611027565b82525050565b610e4881611027565b82525050565b6000602082019050610e636000830184610ce4565b92915050565b6000602082019050610e7e6000830184610cd5565b92915050565b60006040820190508181036000830152610e9e8185610cf3565b90508181036020830152610eb28184610cf3565b90509392505050565b60006020820190508181036000830152610ed58184610d51565b905092915050565b60006020820190508181036000830152610ef681610d8a565b9050919050565b60006020820190508181036000830152610f1681610df0565b9050919050565b6000602082019050610f326000830184610e3f565b92915050565b6000819050602082019050919050565b600081519050919050565b600081519050919050565b6000602082019050919050565b600082825260208201905092915050565b600082825260208201905092915050565b6000610f9882611027565b9150610fa383611027565b9250827fffffffffffffffffffffffffffffffffffffffffffffffffffffffffffffffff03821115610fd857610fd76110df565b5b828201905092915050565b6000610fee82611007565b9050919050565b600061100082611007565b9050919050565b600073ffffffffffffffffffffffffffffffffffffffff82169050919050565b6000819050919050565b60005b8381101561104f578082015181840152602081019050611034565b8381111561105e576000848401525b50505050565b6000600282049050600182168061107c57607f821691505b602082108114156110905761108f61110e565b5b50919050565b60006110a182611027565b91507fffffffffffffffffffffffffffffffffffffffffffffffffffffffffffffffff8214156110d4576110d36110df565b5b600182019050919050565b7f4e487b7100000000000000000000000000000000000000000000000000000000600052601160045260246000fd5b7f4e487b7100000000000000000000000000000000000000000000000000000000600052602260045260246000fd5b6000601f19601f8301169050919050565b61115781610fe3565b811461116257600080fd5b50565b61116e81610ff5565b811461117957600080fd5b5056fea2646970667358221220e12087aeecde3bfca74542bb6790b06982143bed4b2f89d4a98a4f845c29d3ff64736f6c63430008000033a2646970667358221220169aa9bd2df12fadb4d92be4bbc23f037d9b542e15ae8b4396def62f2fa56ae164736f6c63430008000033",
  "immutableReferences": {},
  "source": "// SPDX-License-Identifier: MIT\npragma solidity ^0.8.0;\n\nimport './Fundraiser.sol';\n\ncontract FundraiserFactory {\n  Fundraiser[] private _fundraisers;\n  uint256 constant maxLimit = 20;\n\n  event FundraiserCreated(Fundraiser indexed fundraiser, address indexed owner);\n\n  function fundraisersCount() public view returns (uint256) {\n    return _fundraisers.length;\n  }\n\n  function createFundraiser(\n    string memory name,\n    string memory url,\n    string memory imageURL,\n    string memory description,\n    address payable beneficiary\n  ) public {\n    Fundraiser fundraiser = new Fundraiser(\n      name,\n      url,\n      imageURL,\n      description,\n      beneficiary,\n      msg.sender\n    );\n    _fundraisers.push(fundraiser);\n    emit FundraiserCreated(fundraiser, msg.sender);\n  }\n\n  function fundraisers(uint256 limit, uint256 offset)\n    public\n    view\n    returns (Fundraiser[] memory coll)\n  {\n    require(offset <= fundraisersCount(), 'offset out of bounds');\n    uint256 size = fundraisersCount() - offset;\n    size = size < limit ? size : limit;\n    size = size < maxLimit ? size : maxLimit;\n    coll = new Fundraiser[](size);\n\n    for (uint256 i = 0; i < size; i++) {\n      coll[i] = _fundraisers[offset + i];\n    }\n\n    return coll;\n  }\n}\n",
  "sourcePath": "/Users/ac12644/Desktop/fundraiser/contracts/FundraiserFactory.sol",
  "compiler": {
    "name": "solc",
    "version": "0.8.0+commit.c7dfd78e.Emscripten.clang"
  },
  "schemaVersion": "3.4.7",
  "updatedAt": "2022-07-04T19:55:36.470Z",
  "networkType": "ethereum",
  "devdoc": {
    "kind": "dev",
    "methods": {},
    "version": 1
  },
  "userdoc": {
    "kind": "user",
    "methods": {},
    "version": 1
  }
}