{
  "contractName": "FundraiserFactory",
  "abi": [
    {
      "anonymous": false,
      "inputs": [
        {
          "indexed": true,
          "internalType": "contract Fundraiser",
          "name": "fundraiser",
          "type": "address"
        },
        {
          "indexed": true,
          "internalType": "address",
          "name": "owner",
          "type": "address"
        }
      ],
      "name": "FundraiserCreated",
      "type": "event"
    },
    {
      "inputs": [
        {
          "internalType": "string",
          "name": "name",
          "type": "string"
        },
        {
          "internalType": "string",
          "name": "linkToCompany",
          "type": "string"
        },
        {
          "internalType": "string",
          "name": "image1",
          "type": "string"
        },
        {
          "internalType": "string",
          "name": "image2",
          "type": "string"
        },
        {
          "internalType": "string",
          "name": "image3",
          "type": "string"
        },
        {
          "internalType": "string",
          "name": "image4",
          "type": "string"
        },
        {
          "internalType": "string",
          "name": "description",
          "type": "string"
        },
        {
          "internalType": "string",
          "name": "about",
          "type": "string"
        },
        {
          "internalType": "address payable",
          "name": "beneficiary",
          "type": "address"
        }
      ],
      "name": "createFundraiser",
      "outputs": [],
      "stateMutability": "nonpayable",
      "type": "function"
    },
    {
      "inputs": [],
      "name": "fundraisersCount",
      "outputs": [
        {
          "internalType": "uint256",
          "name": "",
          "type": "uint256"
        }
      ],
      "stateMutability": "view",
      "type": "function",
      "constant": true
    },
    {
      "inputs": [
        {
          "internalType": "uint256",
          "name": "limit",
          "type": "uint256"
        },
        {
          "internalType": "uint256",
          "name": "offset",
          "type": "uint256"
        }
      ],
      "name": "fundraisers",
      "outputs": [
        {
          "internalType": "contract Fundraiser[]",
          "name": "coll",
          "type": "address[]"
        }
      ],
      "stateMutability": "view",
      "type": "function",
      "constant": true
    }
  ],
  "bytecode": "0x608060405234801561001057600080fd5b5061286d806100206000396000f3fe60806040523480156200001157600080fd5b5060043610620000465760003560e01c80631a2fdeaf146200004b578063704914f8146200006b5780639d3b435514620000a1575b600080fd5b620000696004803603810190620000639190620004ad565b620000c3565b005b6200008960048036038101906200008391906200064e565b620001db565b604051620000989190620007da565b60405180910390f35b620000ab620003f3565b604051620000ba919062000908565b60405180910390f35b600089898989898989898933604051620000dd90620003ff565b620000f29a99989796959493929190620007fe565b604051809103906000f0801580156200010f573d6000803e3d6000fd5b5090506000819080600181540180825580915050600190039060005260206000200160009091909190916101000a81548173ffffffffffffffffffffffffffffffffffffffff021916908373ffffffffffffffffffffffffffffffffffffffff1602179055503373ffffffffffffffffffffffffffffffffffffffff168173ffffffffffffffffffffffffffffffffffffffff167fa2398daac0c8053a1e3c0280916c2ec6bc884f0959c27e639a4db829b7eabfb160405160405180910390a350505050505050505050565b6060620001e7620003f3565b8211156200022c576040517f08c379a00000000000000000000000000000000000000000000000000000000081526004016200022390620008e6565b60405180910390fd5b60008262000239620003f3565b62000245919062000a3e565b905083811062000256578362000258565b805b9050601481106200026b5760146200026d565b805b90508067ffffffffffffffff811115620002b0577f4e487b7100000000000000000000000000000000000000000000000000000000600052604160045260246000fd5b604051908082528060200260200182016040528015620002df5781602001602082028036833780820191505090505b50915060005b81811015620003eb5760008185620002fe9190620009e1565b8154811062000336577f4e487b7100000000000000000000000000000000000000000000000000000000600052603260045260246000fd5b9060005260206000200160009054906101000a900473ffffffffffffffffffffffffffffffffffffffff168382815181106200039b577f4e487b7100000000000000000000000000000000000000000000000000000000600052603260045260246000fd5b602002602001019073ffffffffffffffffffffffffffffffffffffffff16908173ffffffffffffffffffffffffffffffffffffffff16815250508080620003e29062000b38565b915050620002e5565b505092915050565b60008080549050905090565b611c0e8062000c2a83390190565b6000620004246200041e8462000959565b62000925565b9050828152602081018484840111156200043d57600080fd5b6200044a84828562000af3565b509392505050565b600081359050620004638162000bf5565b92915050565b600082601f8301126200047b57600080fd5b81356200048d8482602086016200040d565b91505092915050565b600081359050620004a78162000c0f565b92915050565b60008060008060008060008060006101208a8c031215620004cd57600080fd5b60008a013567ffffffffffffffff811115620004e857600080fd5b620004f68c828d0162000469565b99505060208a013567ffffffffffffffff8111156200051457600080fd5b620005228c828d0162000469565b98505060408a013567ffffffffffffffff8111156200054057600080fd5b6200054e8c828d0162000469565b97505060608a013567ffffffffffffffff8111156200056c57600080fd5b6200057a8c828d0162000469565b96505060808a013567ffffffffffffffff8111156200059857600080fd5b620005a68c828d0162000469565b95505060a08a013567ffffffffffffffff811115620005c457600080fd5b620005d28c828d0162000469565b94505060c08a013567ffffffffffffffff811115620005f057600080fd5b620005fe8c828d0162000469565b93505060e08a013567ffffffffffffffff8111156200061c57600080fd5b6200062a8c828d0162000469565b9250506101006200063e8c828d0162000452565b9150509295985092959850929598565b600080604083850312156200066257600080fd5b6000620006728582860162000496565b9250506020620006858582860162000496565b9150509250929050565b60006200069d838362000735565b60208301905092915050565b620006b48162000a8d565b82525050565b620006c58162000a79565b82525050565b6000620006d8826200099c565b620006e48185620009bf565b9350620006f1836200098c565b8060005b83811015620007285781516200070c88826200068f565b97506200071983620009b2565b925050600181019050620006f5565b5085935050505092915050565b620007408162000acb565b82525050565b60006200075382620009a7565b6200075f8185620009d0565b93506200077181856020860162000b02565b6200077c8162000be4565b840191505092915050565b600062000796601483620009d0565b91507f6f6666736574206f7574206f6620626f756e64730000000000000000000000006000830152602082019050919050565b620007d48162000ac1565b82525050565b60006020820190508181036000830152620007f68184620006cb565b905092915050565b60006101408201905081810360008301526200081b818d62000746565b9050818103602083015262000831818c62000746565b9050818103604083015262000847818b62000746565b905081810360608301526200085d818a62000746565b9050818103608083015262000873818962000746565b905081810360a083015262000889818862000746565b905081810360c08301526200089f818762000746565b905081810360e0830152620008b5818662000746565b9050620008c7610100830185620006a9565b620008d7610120830184620006ba565b9b9a5050505050505050505050565b60006020820190508181036000830152620009018162000787565b9050919050565b60006020820190506200091f6000830184620007c9565b92915050565b6000604051905081810181811067ffffffffffffffff821117156200094f576200094e62000bb5565b5b8060405250919050565b600067ffffffffffffffff82111562000977576200097662000bb5565b5b601f19601f8301169050602081019050919050565b6000819050602082019050919050565b600081519050919050565b600081519050919050565b6000602082019050919050565b600082825260208201905092915050565b600082825260208201905092915050565b6000620009ee8262000ac1565b9150620009fb8362000ac1565b9250827fffffffffffffffffffffffffffffffffffffffffffffffffffffffffffffffff0382111562000a335762000a3262000b86565b5b828201905092915050565b600062000a4b8262000ac1565b915062000a588362000ac1565b92508282101562000a6e5762000a6d62000b86565b5b828203905092915050565b600062000a868262000aa1565b9050919050565b600062000a9a8262000aa1565b9050919050565b600073ffffffffffffffffffffffffffffffffffffffff82169050919050565b6000819050919050565b600062000ad88262000adf565b9050919050565b600062000aec8262000aa1565b9050919050565b82818337600083830152505050565b60005b8381101562000b2257808201518184015260208101905062000b05565b8381111562000b32576000848401525b50505050565b600062000b458262000ac1565b91507fffffffffffffffffffffffffffffffffffffffffffffffffffffffffffffffff82141562000b7b5762000b7a62000b86565b5b600182019050919050565b7f4e487b7100000000000000000000000000000000000000000000000000000000600052601160045260246000fd5b7f4e487b7100000000000000000000000000000000000000000000000000000000600052604160045260246000fd5b6000601f19601f8301169050919050565b62000c008162000a8d565b811462000c0c57600080fd5b50565b62000c1a8162000ac1565b811462000c2657600080fd5b5056fe60806040523480156200001157600080fd5b5060405162001c0e38038062001c0e83398181016040528101906200003791906200039d565b620000576200004b6200018160201b60201c565b6200018960201b60201c565b89600290805190602001906200006f9291906200024d565b508860039080519060200190620000889291906200024d565b508760049080519060200190620000a19291906200024d565b508660059080519060200190620000ba9291906200024d565b508560069080519060200190620000d39291906200024d565b508460079080519060200190620000ec9291906200024d565b508360089080519060200190620001059291906200024d565b5082600990805190602001906200011e9291906200024d565b5081600a60006101000a81548173ffffffffffffffffffffffffffffffffffffffff021916908373ffffffffffffffffffffffffffffffffffffffff16021790555062000171816200018960201b60201c565b5050505050505050505062000702565b600033905090565b60008060009054906101000a900473ffffffffffffffffffffffffffffffffffffffff169050816000806101000a81548173ffffffffffffffffffffffffffffffffffffffff021916908373ffffffffffffffffffffffffffffffffffffffff1602179055508173ffffffffffffffffffffffffffffffffffffffff168173ffffffffffffffffffffffffffffffffffffffff167f8be0079c531659141344cd1fd0a4f28419497f9722a3daafe3b4186f6b6457e060405160405180910390a35050565b8280546200025b906200063a565b90600052602060002090601f0160209004810192826200027f5760008555620002cb565b82601f106200029a57805160ff1916838001178555620002cb565b82800160010185558215620002cb579182015b82811115620002ca578251825591602001919060010190620002ad565b5b509050620002da9190620002de565b5090565b5b80821115620002f9576000816000905550600101620002df565b5090565b6000620003146200030e8462000589565b62000555565b9050828152602081018484840111156200032d57600080fd5b6200033a84828562000604565b509392505050565b6000815190506200035381620006ce565b92915050565b6000815190506200036a81620006e8565b92915050565b600082601f8301126200038257600080fd5b815162000394848260208601620002fd565b91505092915050565b6000806000806000806000806000806101408b8d031215620003be57600080fd5b60008b015167ffffffffffffffff811115620003d957600080fd5b620003e78d828e0162000370565b9a505060208b015167ffffffffffffffff8111156200040557600080fd5b620004138d828e0162000370565b99505060408b015167ffffffffffffffff8111156200043157600080fd5b6200043f8d828e0162000370565b98505060608b015167ffffffffffffffff8111156200045d57600080fd5b6200046b8d828e0162000370565b97505060808b015167ffffffffffffffff8111156200048957600080fd5b620004978d828e0162000370565b96505060a08b015167ffffffffffffffff811115620004b557600080fd5b620004c38d828e0162000370565b95505060c08b015167ffffffffffffffff811115620004e157600080fd5b620004ef8d828e0162000370565b94505060e08b015167ffffffffffffffff8111156200050d57600080fd5b6200051b8d828e0162000370565b9350506101006200052f8d828e0162000359565b925050610120620005438d828e0162000342565b9150509295989b9194979a5092959850565b6000604051905081810181811067ffffffffffffffff821117156200057f576200057e6200069f565b5b8060405250919050565b600067ffffffffffffffff821115620005a757620005a66200069f565b5b601f19601f8301169050602081019050919050565b6000620005c982620005e4565b9050919050565b6000620005dd82620005e4565b9050919050565b600073ffffffffffffffffffffffffffffffffffffffff82169050919050565b60005b838110156200062457808201518184015260208101905062000607565b8381111562000634576000848401525b50505050565b600060028204905060018216806200065357607f821691505b602082108114156200066a576200066962000670565b5b50919050565b7f4e487b7100000000000000000000000000000000000000000000000000000000600052602260045260246000fd5b7f4e487b7100000000000000000000000000000000000000000000000000000000600052604160045260246000fd5b620006d981620005bc565b8114620006e557600080fd5b50565b620006f381620005d0565b8114620006ff57600080fd5b50565b6114fc80620007126000396000f3fe6080604052600436106101185760003560e01c8063715018a6116100a0578063e7ceb2aa11610064578063e7ceb2aa1461037f578063e8c2803f146103aa578063ed88c68e146103d5578063f2fde38b146103df578063fcfb16d41461040857610119565b8063715018a6146102bc5780637284e416146102d35780638da5cb5b146102fe578063c81252a814610329578063de2ed8931461035457610119565b80631f522595116100e75780631f522595146101f957806332cd95c51461022457806338af3eed1461024f5780633ccfd60b1461027a5780635e1d54821461029157610119565b80630180b97c1461014e57806306fdde03146101795780631a57f7b4146101a45780631c31f710146101d057610119565b5b61012e34600b5461043390919063ffffffff16565b600b81905550600c6000815480929190610147906113e0565b9190505550005b34801561015a57600080fd5b50610163610449565b6040516101709190611267565b60405180910390f35b34801561018557600080fd5b5061018e610493565b60405161019b9190611205565b60405180910390f35b3480156101b057600080fd5b506101b9610521565b6040516101c79291906111ce565b60405180910390f35b3480156101dc57600080fd5b506101f760048036038101906101f29190610fde565b610754565b005b34801561020557600080fd5b5061020e6107a0565b60405161021b9190611267565b60405180910390f35b34801561023057600080fd5b506102396107a6565b6040516102469190611205565b60405180910390f35b34801561025b57600080fd5b50610264610834565b60405161027191906111b3565b60405180910390f35b34801561028657600080fd5b5061028f61085a565b005b34801561029d57600080fd5b506102a661090a565b6040516102b39190611205565b60405180910390f35b3480156102c857600080fd5b506102d1610998565b005b3480156102df57600080fd5b506102e86109ac565b6040516102f59190611205565b60405180910390f35b34801561030a57600080fd5b50610313610a3a565b6040516103209190611198565b60405180910390f35b34801561033557600080fd5b5061033e610a63565b60405161034b9190611205565b60405180910390f35b34801561036057600080fd5b50610369610af1565b6040516103769190611267565b60405180910390f35b34801561038b57600080fd5b50610394610af7565b6040516103a19190611205565b60405180910390f35b3480156103b657600080fd5b506103bf610b85565b6040516103cc9190611205565b60405180910390f35b6103dd610c13565b005b3480156103eb57600080fd5b5061040660048036038101906104019190610fb5565b610d2f565b005b34801561041457600080fd5b5061041d610db3565b60405161042a9190611205565b60405180910390f35b6000818361044191906112d7565b905092915050565b6000600160003373ffffffffffffffffffffffffffffffffffffffff1673ffffffffffffffffffffffffffffffffffffffff16815260200190815260200160002080549050905090565b600280546104a0906113ae565b80601f01602080910402602001604051908101604052809291908181526020018280546104cc906113ae565b80156105195780601f106104ee57610100808354040283529160200191610519565b820191906000526020600020905b8154815290600101906020018083116104fc57829003601f168201915b505050505081565b606080600061052e610449565b90508067ffffffffffffffff811115610570577f4e487b7100000000000000000000000000000000000000000000000000000000600052604160045260246000fd5b60405190808252806020026020018201604052801561059e5781602001602082028036833780820191505090505b5092508067ffffffffffffffff8111156105e1577f4e487b7100000000000000000000000000000000000000000000000000000000600052604160045260246000fd5b60405190808252806020026020018201604052801561060f5781602001602082028036833780820191505090505b50915060005b8181101561074e576000600160003373ffffffffffffffffffffffffffffffffffffffff1673ffffffffffffffffffffffffffffffffffffffff1681526020019081526020016000208281548110610696577f4e487b7100000000000000000000000000000000000000000000000000000000600052603260045260246000fd5b9060005260206000209060020201905080600001548583815181106106e4577f4e487b7100000000000000000000000000000000000000000000000000000000600052603260045260246000fd5b602002602001018181525050806001015484838151811061072e577f4e487b7100000000000000000000000000000000000000000000000000000000600052603260045260246000fd5b602002602001018181525050508080610746906113e0565b915050610615565b50509091565b61075c610e41565b80600a60006101000a81548173ffffffffffffffffffffffffffffffffffffffff021916908373ffffffffffffffffffffffffffffffffffffffff16021790555050565b600c5481565b600380546107b3906113ae565b80601f01602080910402602001604051908101604052809291908181526020018280546107df906113ae565b801561082c5780601f106108015761010080835404028352916020019161082c565b820191906000526020600020905b81548152906001019060200180831161080f57829003601f168201915b505050505081565b600a60009054906101000a900473ffffffffffffffffffffffffffffffffffffffff1681565b610862610e41565b6000479050600a60009054906101000a900473ffffffffffffffffffffffffffffffffffffffff1673ffffffffffffffffffffffffffffffffffffffff166108fc829081150290604051600060405180830381858888f193505050501580156108cf573d6000803e3d6000fd5b507f5b6b431d4476a211bb7d41c20d1aab9ae2321deee0d20be3d9fc9b1093fa6e3d816040516108ff9190611267565b60405180910390a150565b60098054610917906113ae565b80601f0160208091040260200160405190810160405280929190818152602001828054610943906113ae565b80156109905780601f1061096557610100808354040283529160200191610990565b820191906000526020600020905b81548152906001019060200180831161097357829003601f168201915b505050505081565b6109a0610e41565b6109aa6000610ebf565b565b600880546109b9906113ae565b80601f01602080910402602001604051908101604052809291908181526020018280546109e5906113ae565b8015610a325780601f10610a0757610100808354040283529160200191610a32565b820191906000526020600020905b815481529060010190602001808311610a1557829003601f168201915b505050505081565b60008060009054906101000a900473ffffffffffffffffffffffffffffffffffffffff16905090565b60068054610a70906113ae565b80601f0160208091040260200160405190810160405280929190818152602001828054610a9c906113ae565b8015610ae95780601f10610abe57610100808354040283529160200191610ae9565b820191906000526020600020905b815481529060010190602001808311610acc57829003601f168201915b505050505081565b600b5481565b60058054610b04906113ae565b80601f0160208091040260200160405190810160405280929190818152602001828054610b30906113ae565b8015610b7d5780601f10610b5257610100808354040283529160200191610b7d565b820191906000526020600020905b815481529060010190602001808311610b6057829003601f168201915b505050505081565b60048054610b92906113ae565b80601f0160208091040260200160405190810160405280929190818152602001828054610bbe906113ae565b8015610c0b5780601f10610be057610100808354040283529160200191610c0b565b820191906000526020600020905b815481529060010190602001808311610bee57829003601f168201915b505050505081565b60006040518060400160405280348152602001428152509050600160003373ffffffffffffffffffffffffffffffffffffffff1673ffffffffffffffffffffffffffffffffffffffff16815260200190815260200160002081908060018154018082558091505060019003906000526020600020906002020160009091909190915060008201518160000155602082015181600101555050610cc034600b5461043390919063ffffffff16565b600b81905550600c6000815480929190610cd9906113e0565b91905055503373ffffffffffffffffffffffffffffffffffffffff167f264f630d9efa0d07053a31163641d9fcc0adafc9d9e76f1c37c2ce3a558d2c5234604051610d249190611267565b60405180910390a250565b610d37610e41565b600073ffffffffffffffffffffffffffffffffffffffff168173ffffffffffffffffffffffffffffffffffffffff161415610da7576040517f08c379a0000000000000000000000000000000000000000000000000000000008152600401610d9e90611227565b60405180910390fd5b610db081610ebf565b50565b60078054610dc0906113ae565b80601f0160208091040260200160405190810160405280929190818152602001828054610dec906113ae565b8015610e395780601f10610e0e57610100808354040283529160200191610e39565b820191906000526020600020905b815481529060010190602001808311610e1c57829003601f168201915b505050505081565b610e49610f83565b73ffffffffffffffffffffffffffffffffffffffff16610e67610a3a565b73ffffffffffffffffffffffffffffffffffffffff1614610ebd576040517f08c379a0000000000000000000000000000000000000000000000000000000008152600401610eb490611247565b60405180910390fd5b565b60008060009054906101000a900473ffffffffffffffffffffffffffffffffffffffff169050816000806101000a81548173ffffffffffffffffffffffffffffffffffffffff021916908373ffffffffffffffffffffffffffffffffffffffff1602179055508173ffffffffffffffffffffffffffffffffffffffff168173ffffffffffffffffffffffffffffffffffffffff167f8be0079c531659141344cd1fd0a4f28419497f9722a3daafe3b4186f6b6457e060405160405180910390a35050565b600033905090565b600081359050610f9a81611498565b92915050565b600081359050610faf816114af565b92915050565b600060208284031215610fc757600080fd5b6000610fd584828501610f8b565b91505092915050565b600060208284031215610ff057600080fd5b6000610ffe84828501610fa0565b91505092915050565b6000611013838361117a565b60208301905092915050565b6110288161133f565b82525050565b6110378161132d565b82525050565b600061104882611292565b61105281856112b5565b935061105d83611282565b8060005b8381101561108e5781516110758882611007565b9750611080836112a8565b925050600181019050611061565b5085935050505092915050565b60006110a68261129d565b6110b081856112c6565b93506110c081856020860161137b565b6110c981611487565b840191505092915050565b60006110e16026836112c6565b91507f4f776e61626c653a206e6577206f776e657220697320746865207a65726f206160008301527f64647265737300000000000000000000000000000000000000000000000000006020830152604082019050919050565b60006111476020836112c6565b91507f4f776e61626c653a2063616c6c6572206973206e6f7420746865206f776e65726000830152602082019050919050565b61118381611371565b82525050565b61119281611371565b82525050565b60006020820190506111ad600083018461102e565b92915050565b60006020820190506111c8600083018461101f565b92915050565b600060408201905081810360008301526111e8818561103d565b905081810360208301526111fc818461103d565b90509392505050565b6000602082019050818103600083015261121f818461109b565b905092915050565b60006020820190508181036000830152611240816110d4565b9050919050565b600060208201905081810360008301526112608161113a565b9050919050565b600060208201905061127c6000830184611189565b92915050565b6000819050602082019050919050565b600081519050919050565b600081519050919050565b6000602082019050919050565b600082825260208201905092915050565b600082825260208201905092915050565b60006112e282611371565b91506112ed83611371565b9250827fffffffffffffffffffffffffffffffffffffffffffffffffffffffffffffffff0382111561132257611321611429565b5b828201905092915050565b600061133882611351565b9050919050565b600061134a82611351565b9050919050565b600073ffffffffffffffffffffffffffffffffffffffff82169050919050565b6000819050919050565b60005b8381101561139957808201518184015260208101905061137e565b838111156113a8576000848401525b50505050565b600060028204905060018216806113c657607f821691505b602082108114156113da576113d9611458565b5b50919050565b60006113eb82611371565b91507fffffffffffffffffffffffffffffffffffffffffffffffffffffffffffffffff82141561141e5761141d611429565b5b600182019050919050565b7f4e487b7100000000000000000000000000000000000000000000000000000000600052601160045260246000fd5b7f4e487b7100000000000000000000000000000000000000000000000000000000600052602260045260246000fd5b6000601f19601f8301169050919050565b6114a18161132d565b81146114ac57600080fd5b50565b6114b88161133f565b81146114c357600080fd5b5056fea2646970667358221220104b7d00f78ae5c7e7f280f896343b8a0d58baee567ec65cf8b04af5faeda59f64736f6c63430008000033a2646970667358221220fb2b94e064a93729f8a5bc60425ee1ab66918d53d35ef345841320e3a36c29eb64736f6c63430008000033",
  "immutableReferences": {},
  "source": "// SPDX-License-Identifier: MIT\npragma solidity ^0.8.0;\n\nimport './Fundraiser.sol';\n\ncontract FundraiserFactory {\n  uint256 constant maxLimit = 20;\n  Fundraiser[] private _fundraisers;\n\n  event FundraiserCreated(Fundraiser indexed fundraiser, address indexed owner);\n\n  function createFundraiser(\n    string memory name,\n    string memory linkToCompany,\n    string memory image1,\n    string memory image2,\n    string memory image3,\n    string memory image4,\n    string memory description,\n    string memory about,\n    address payable beneficiary\n  ) public {\n    Fundraiser fundraiser = new Fundraiser(\n      name,\n      linkToCompany,\n      image1,\n      image2,\n      image3,\n      image4,\n      description,\n      about,\n      beneficiary,\n      msg.sender\n    );\n    _fundraisers.push(fundraiser);\n    emit FundraiserCreated(fundraiser, msg.sender);\n  }\n\n  function fundraisersCount() public view returns (uint256) {\n    return _fundraisers.length;\n  }\n\n  function fundraisers(uint256 limit, uint256 offset)\n    public\n    view\n    returns (Fundraiser[] memory coll)\n  {\n    require(offset <= fundraisersCount(), 'offset out of bounds');\n\n    uint256 size = fundraisersCount() - offset;\n    size = size < limit ? size : limit;\n    size = size < maxLimit ? size : maxLimit;\n    coll = new Fundraiser[](size);\n\n    for (uint256 i = 0; i < size; i++) {\n      coll[i] = _fundraisers[offset + i];\n    }\n\n    return coll;\n  }\n}\n",
  "sourcePath": "/Users/ac12644/Desktop/Put-A-Smile/contracts/FundraiserFactory.sol",
  "compiler": {
    "name": "solc",
    "version": "0.8.0+commit.c7dfd78e.Emscripten.clang"
  },
  "schemaVersion": "3.4.7",
  "updatedAt": "2022-07-07T15:45:52.518Z",
  "networkType": "ethereum",
  "devdoc": {
    "kind": "dev",
    "methods": {},
    "version": 1
  },
  "userdoc": {
    "kind": "user",
    "methods": {},
    "version": 1
  }
}