{
  "contractName": "Fundraiser",
  "abi": [
    {
      "inputs": [
        {
          "internalType": "string",
          "name": "_name",
          "type": "string"
        },
        {
          "internalType": "string",
          "name": "_linkToCompany",
          "type": "string"
        },
        {
          "internalType": "string",
          "name": "_images",
          "type": "string"
        },
        {
          "internalType": "string",
          "name": "_description",
          "type": "string"
        },
        {
          "internalType": "string",
          "name": "_about",
          "type": "string"
        },
        {
          "internalType": "address payable",
          "name": "_beneficiary",
          "type": "address"
        },
        {
          "internalType": "address",
          "name": "_custodian",
          "type": "address"
        }
      ],
      "stateMutability": "nonpayable",
      "type": "constructor"
    },
    {
      "anonymous": false,
      "inputs": [
        {
          "indexed": true,
          "internalType": "address",
          "name": "donor",
          "type": "address"
        },
        {
          "indexed": false,
          "internalType": "uint256",
          "name": "value",
          "type": "uint256"
        }
      ],
      "name": "DonationReceived",
      "type": "event"
    },
    {
      "anonymous": false,
      "inputs": [
        {
          "indexed": true,
          "internalType": "address",
          "name": "previousOwner",
          "type": "address"
        },
        {
          "indexed": true,
          "internalType": "address",
          "name": "newOwner",
          "type": "address"
        }
      ],
      "name": "OwnershipTransferred",
      "type": "event"
    },
    {
      "anonymous": false,
      "inputs": [
        {
          "indexed": false,
          "internalType": "uint256",
          "name": "amount",
          "type": "uint256"
        }
      ],
      "name": "Withdraw",
      "type": "event"
    },
    {
      "stateMutability": "payable",
      "type": "fallback"
    },
    {
      "inputs": [],
      "name": "about",
      "outputs": [
        {
          "internalType": "string",
          "name": "",
          "type": "string"
        }
      ],
      "stateMutability": "view",
      "type": "function"
    },
    {
      "inputs": [],
      "name": "beneficiary",
      "outputs": [
        {
          "internalType": "address payable",
          "name": "",
          "type": "address"
        }
      ],
      "stateMutability": "view",
      "type": "function"
    },
    {
      "inputs": [],
      "name": "description",
      "outputs": [
        {
          "internalType": "string",
          "name": "",
          "type": "string"
        }
      ],
      "stateMutability": "view",
      "type": "function"
    },
    {
      "inputs": [],
      "name": "donationsCount",
      "outputs": [
        {
          "internalType": "uint256",
          "name": "",
          "type": "uint256"
        }
      ],
      "stateMutability": "view",
      "type": "function"
    },
    {
      "inputs": [],
      "name": "images",
      "outputs": [
        {
          "internalType": "string",
          "name": "",
          "type": "string"
        }
      ],
      "stateMutability": "view",
      "type": "function"
    },
    {
      "inputs": [],
      "name": "linkToCompany",
      "outputs": [
        {
          "internalType": "string",
          "name": "",
          "type": "string"
        }
      ],
      "stateMutability": "view",
      "type": "function"
    },
    {
      "inputs": [],
      "name": "name",
      "outputs": [
        {
          "internalType": "string",
          "name": "",
          "type": "string"
        }
      ],
      "stateMutability": "view",
      "type": "function"
    },
    {
      "inputs": [],
      "name": "owner",
      "outputs": [
        {
          "internalType": "address",
          "name": "",
          "type": "address"
        }
      ],
      "stateMutability": "view",
      "type": "function"
    },
    {
      "inputs": [],
      "name": "renounceOwnership",
      "outputs": [],
      "stateMutability": "nonpayable",
      "type": "function"
    },
    {
      "inputs": [],
      "name": "totalDonations",
      "outputs": [
        {
          "internalType": "uint256",
          "name": "",
          "type": "uint256"
        }
      ],
      "stateMutability": "view",
      "type": "function"
    },
    {
      "inputs": [
        {
          "internalType": "address",
          "name": "newOwner",
          "type": "address"
        }
      ],
      "name": "transferOwnership",
      "outputs": [],
      "stateMutability": "nonpayable",
      "type": "function"
    },
    {
      "inputs": [
        {
          "internalType": "address payable",
          "name": "_beneficiary",
          "type": "address"
        }
      ],
      "name": "setBeneficiary",
      "outputs": [],
      "stateMutability": "nonpayable",
      "type": "function"
    },
    {
      "inputs": [],
      "name": "myDonationsCount",
      "outputs": [
        {
          "internalType": "uint256",
          "name": "",
          "type": "uint256"
        }
      ],
      "stateMutability": "view",
      "type": "function"
    },
    {
      "inputs": [],
      "name": "donate",
      "outputs": [],
      "stateMutability": "payable",
      "type": "function"
    },
    {
      "inputs": [],
      "name": "myDonations",
      "outputs": [
        {
          "internalType": "uint256[]",
          "name": "values",
          "type": "uint256[]"
        },
        {
          "internalType": "uint256[]",
          "name": "dates",
          "type": "uint256[]"
        }
      ],
      "stateMutability": "view",
      "type": "function"
    },
    {
      "inputs": [],
      "name": "withdraw",
      "outputs": [],
      "stateMutability": "nonpayable",
      "type": "function"
    }
  ],
  "bytecode": "0x60806040523480156200001157600080fd5b50604051620018e6380380620018e683398181016040528101906200003791906200034f565b620000576200004b6200013360201b60201c565b6200013b60201b60201c565b86600290805190602001906200006f929190620001ff565b50856003908051906020019062000088929190620001ff565b508460049080519060200190620000a1929190620001ff565b508360059080519060200190620000ba929190620001ff565b508260069080519060200190620000d3929190620001ff565b5081600760006101000a81548173ffffffffffffffffffffffffffffffffffffffff021916908373ffffffffffffffffffffffffffffffffffffffff16021790555062000126816200013b60201b60201c565b5050505050505062000626565b600033905090565b60008060009054906101000a900473ffffffffffffffffffffffffffffffffffffffff169050816000806101000a81548173ffffffffffffffffffffffffffffffffffffffff021916908373ffffffffffffffffffffffffffffffffffffffff1602179055508173ffffffffffffffffffffffffffffffffffffffff168173ffffffffffffffffffffffffffffffffffffffff167f8be0079c531659141344cd1fd0a4f28419497f9722a3daafe3b4186f6b6457e060405160405180910390a35050565b8280546200020d906200055e565b90600052602060002090601f0160209004810192826200023157600085556200027d565b82601f106200024c57805160ff19168380011785556200027d565b828001600101855582156200027d579182015b828111156200027c5782518255916020019190600101906200025f565b5b5090506200028c919062000290565b5090565b5b80821115620002ab57600081600090555060010162000291565b5090565b6000620002c6620002c084620004ad565b62000479565b905082815260208101848484011115620002df57600080fd5b620002ec84828562000528565b509392505050565b6000815190506200030581620005f2565b92915050565b6000815190506200031c816200060c565b92915050565b600082601f8301126200033457600080fd5b815162000346848260208601620002af565b91505092915050565b600080600080600080600060e0888a0312156200036b57600080fd5b600088015167ffffffffffffffff8111156200038657600080fd5b620003948a828b0162000322565b975050602088015167ffffffffffffffff811115620003b257600080fd5b620003c08a828b0162000322565b965050604088015167ffffffffffffffff811115620003de57600080fd5b620003ec8a828b0162000322565b955050606088015167ffffffffffffffff8111156200040a57600080fd5b620004188a828b0162000322565b945050608088015167ffffffffffffffff8111156200043657600080fd5b620004448a828b0162000322565b93505060a0620004578a828b016200030b565b92505060c06200046a8a828b01620002f4565b91505092959891949750929550565b6000604051905081810181811067ffffffffffffffff82111715620004a357620004a2620005c3565b5b8060405250919050565b600067ffffffffffffffff821115620004cb57620004ca620005c3565b5b601f19601f8301169050602081019050919050565b6000620004ed8262000508565b9050919050565b6000620005018262000508565b9050919050565b600073ffffffffffffffffffffffffffffffffffffffff82169050919050565b60005b83811015620005485780820151818401526020810190506200052b565b8381111562000558576000848401525b50505050565b600060028204905060018216806200057757607f821691505b602082108114156200058e576200058d62000594565b5b50919050565b7f4e487b7100000000000000000000000000000000000000000000000000000000600052602260045260246000fd5b7f4e487b7100000000000000000000000000000000000000000000000000000000600052604160045260246000fd5b620005fd81620004e0565b81146200060957600080fd5b50565b6200061781620004f4565b81146200062357600080fd5b50565b6112b080620006366000396000f3fe6080604052600436106100f75760003560e01c80633cdf644a1161008a5780638da5cb5b116100595780638da5cb5b14610308578063de2ed89314610333578063ed88c68e1461035e578063f2fde38b14610368576100f8565b80633cdf644a146102705780635e1d54821461029b578063715018a6146102c65780637284e416146102dd576100f8565b80631f522595116100c65780631f522595146101d857806332cd95c51461020357806338af3eed1461022e5780633ccfd60b14610259576100f8565b80630180b97c1461012d57806306fdde03146101585780631a57f7b4146101835780631c31f710146101af576100f8565b5b61010d3460085461039190919063ffffffff16565b6008819055506009600081548092919061012690611194565b9190505550005b34801561013957600080fd5b506101426103a7565b60405161014f919061101b565b60405180910390f35b34801561016457600080fd5b5061016d6103f1565b60405161017a9190610fb9565b60405180910390f35b34801561018f57600080fd5b5061019861047f565b6040516101a6929190610f82565b60405180910390f35b3480156101bb57600080fd5b506101d660048036038101906101d19190610d92565b6106b2565b005b3480156101e457600080fd5b506101ed6106fe565b6040516101fa919061101b565b60405180910390f35b34801561020f57600080fd5b50610218610704565b6040516102259190610fb9565b60405180910390f35b34801561023a57600080fd5b50610243610792565b6040516102509190610f67565b60405180910390f35b34801561026557600080fd5b5061026e6107b8565b005b34801561027c57600080fd5b50610285610868565b6040516102929190610fb9565b60405180910390f35b3480156102a757600080fd5b506102b06108f6565b6040516102bd9190610fb9565b60405180910390f35b3480156102d257600080fd5b506102db610984565b005b3480156102e957600080fd5b506102f2610998565b6040516102ff9190610fb9565b60405180910390f35b34801561031457600080fd5b5061031d610a26565b60405161032a9190610f4c565b60405180910390f35b34801561033f57600080fd5b50610348610a4f565b604051610355919061101b565b60405180910390f35b610366610a55565b005b34801561037457600080fd5b5061038f600480360381019061038a9190610d69565b610b71565b005b6000818361039f919061108b565b905092915050565b6000600160003373ffffffffffffffffffffffffffffffffffffffff1673ffffffffffffffffffffffffffffffffffffffff16815260200190815260200160002080549050905090565b600280546103fe90611162565b80601f016020809104026020016040519081016040528092919081815260200182805461042a90611162565b80156104775780601f1061044c57610100808354040283529160200191610477565b820191906000526020600020905b81548152906001019060200180831161045a57829003601f168201915b505050505081565b606080600061048c6103a7565b90508067ffffffffffffffff8111156104ce577f4e487b7100000000000000000000000000000000000000000000000000000000600052604160045260246000fd5b6040519080825280602002602001820160405280156104fc5781602001602082028036833780820191505090505b5092508067ffffffffffffffff81111561053f577f4e487b7100000000000000000000000000000000000000000000000000000000600052604160045260246000fd5b60405190808252806020026020018201604052801561056d5781602001602082028036833780820191505090505b50915060005b818110156106ac576000600160003373ffffffffffffffffffffffffffffffffffffffff1673ffffffffffffffffffffffffffffffffffffffff16815260200190815260200160002082815481106105f4577f4e487b7100000000000000000000000000000000000000000000000000000000600052603260045260246000fd5b906000526020600020906002020190508060000154858381518110610642577f4e487b7100000000000000000000000000000000000000000000000000000000600052603260045260246000fd5b602002602001018181525050806001015484838151811061068c577f4e487b7100000000000000000000000000000000000000000000000000000000600052603260045260246000fd5b6020026020010181815250505080806106a490611194565b915050610573565b50509091565b6106ba610bf5565b80600760006101000a81548173ffffffffffffffffffffffffffffffffffffffff021916908373ffffffffffffffffffffffffffffffffffffffff16021790555050565b60095481565b6003805461071190611162565b80601f016020809104026020016040519081016040528092919081815260200182805461073d90611162565b801561078a5780601f1061075f5761010080835404028352916020019161078a565b820191906000526020600020905b81548152906001019060200180831161076d57829003601f168201915b505050505081565b600760009054906101000a900473ffffffffffffffffffffffffffffffffffffffff1681565b6107c0610bf5565b6000479050600760009054906101000a900473ffffffffffffffffffffffffffffffffffffffff1673ffffffffffffffffffffffffffffffffffffffff166108fc829081150290604051600060405180830381858888f1935050505015801561082d573d6000803e3d6000fd5b507f5b6b431d4476a211bb7d41c20d1aab9ae2321deee0d20be3d9fc9b1093fa6e3d8160405161085d919061101b565b60405180910390a150565b6004805461087590611162565b80601f01602080910402602001604051908101604052809291908181526020018280546108a190611162565b80156108ee5780601f106108c3576101008083540402835291602001916108ee565b820191906000526020600020905b8154815290600101906020018083116108d157829003601f168201915b505050505081565b6006805461090390611162565b80601f016020809104026020016040519081016040528092919081815260200182805461092f90611162565b801561097c5780601f106109515761010080835404028352916020019161097c565b820191906000526020600020905b81548152906001019060200180831161095f57829003601f168201915b505050505081565b61098c610bf5565b6109966000610c73565b565b600580546109a590611162565b80601f01602080910402602001604051908101604052809291908181526020018280546109d190611162565b8015610a1e5780601f106109f357610100808354040283529160200191610a1e565b820191906000526020600020905b815481529060010190602001808311610a0157829003601f168201915b505050505081565b60008060009054906101000a900473ffffffffffffffffffffffffffffffffffffffff16905090565b60085481565b60006040518060400160405280348152602001428152509050600160003373ffffffffffffffffffffffffffffffffffffffff1673ffffffffffffffffffffffffffffffffffffffff16815260200190815260200160002081908060018154018082558091505060019003906000526020600020906002020160009091909190915060008201518160000155602082015181600101555050610b023460085461039190919063ffffffff16565b60088190555060096000815480929190610b1b90611194565b91905055503373ffffffffffffffffffffffffffffffffffffffff167f264f630d9efa0d07053a31163641d9fcc0adafc9d9e76f1c37c2ce3a558d2c5234604051610b66919061101b565b60405180910390a250565b610b79610bf5565b600073ffffffffffffffffffffffffffffffffffffffff168173ffffffffffffffffffffffffffffffffffffffff161415610be9576040517f08c379a0000000000000000000000000000000000000000000000000000000008152600401610be090610fdb565b60405180910390fd5b610bf281610c73565b50565b610bfd610d37565b73ffffffffffffffffffffffffffffffffffffffff16610c1b610a26565b73ffffffffffffffffffffffffffffffffffffffff1614610c71576040517f08c379a0000000000000000000000000000000000000000000000000000000008152600401610c6890610ffb565b60405180910390fd5b565b60008060009054906101000a900473ffffffffffffffffffffffffffffffffffffffff169050816000806101000a81548173ffffffffffffffffffffffffffffffffffffffff021916908373ffffffffffffffffffffffffffffffffffffffff1602179055508173ffffffffffffffffffffffffffffffffffffffff168173ffffffffffffffffffffffffffffffffffffffff167f8be0079c531659141344cd1fd0a4f28419497f9722a3daafe3b4186f6b6457e060405160405180910390a35050565b600033905090565b600081359050610d4e8161124c565b92915050565b600081359050610d6381611263565b92915050565b600060208284031215610d7b57600080fd5b6000610d8984828501610d3f565b91505092915050565b600060208284031215610da457600080fd5b6000610db284828501610d54565b91505092915050565b6000610dc78383610f2e565b60208301905092915050565b610ddc816110f3565b82525050565b610deb816110e1565b82525050565b6000610dfc82611046565b610e068185611069565b9350610e1183611036565b8060005b83811015610e42578151610e298882610dbb565b9750610e348361105c565b925050600181019050610e15565b5085935050505092915050565b6000610e5a82611051565b610e64818561107a565b9350610e7481856020860161112f565b610e7d8161123b565b840191505092915050565b6000610e9560268361107a565b91507f4f776e61626c653a206e6577206f776e657220697320746865207a65726f206160008301527f64647265737300000000000000000000000000000000000000000000000000006020830152604082019050919050565b6000610efb60208361107a565b91507f4f776e61626c653a2063616c6c6572206973206e6f7420746865206f776e65726000830152602082019050919050565b610f3781611125565b82525050565b610f4681611125565b82525050565b6000602082019050610f616000830184610de2565b92915050565b6000602082019050610f7c6000830184610dd3565b92915050565b60006040820190508181036000830152610f9c8185610df1565b90508181036020830152610fb08184610df1565b90509392505050565b60006020820190508181036000830152610fd38184610e4f565b905092915050565b60006020820190508181036000830152610ff481610e88565b9050919050565b6000602082019050818103600083015261101481610eee565b9050919050565b60006020820190506110306000830184610f3d565b92915050565b6000819050602082019050919050565b600081519050919050565b600081519050919050565b6000602082019050919050565b600082825260208201905092915050565b600082825260208201905092915050565b600061109682611125565b91506110a183611125565b9250827fffffffffffffffffffffffffffffffffffffffffffffffffffffffffffffffff038211156110d6576110d56111dd565b5b828201905092915050565b60006110ec82611105565b9050919050565b60006110fe82611105565b9050919050565b600073ffffffffffffffffffffffffffffffffffffffff82169050919050565b6000819050919050565b60005b8381101561114d578082015181840152602081019050611132565b8381111561115c576000848401525b50505050565b6000600282049050600182168061117a57607f821691505b6020821081141561118e5761118d61120c565b5b50919050565b600061119f82611125565b91507fffffffffffffffffffffffffffffffffffffffffffffffffffffffffffffffff8214156111d2576111d16111dd565b5b600182019050919050565b7f4e487b7100000000000000000000000000000000000000000000000000000000600052601160045260246000fd5b7f4e487b7100000000000000000000000000000000000000000000000000000000600052602260045260246000fd5b6000601f19601f8301169050919050565b611255816110e1565b811461126057600080fd5b50565b61126c816110f3565b811461127757600080fd5b5056fea2646970667358221220d03002d71693eb7f0860e33b88aaa328141bb44e563c5c34c72fc612016c925e64736f6c63430008000033",
  "immutableReferences": {},
  "source": "// SPDX-License-Identifier: MIT\npragma solidity ^0.8.0;\n\nimport '@openzeppelin/contracts/access/Ownable.sol';\nimport '@openzeppelin/contracts/utils/math/SafeMath.sol';\n\ncontract Fundraiser is Ownable {\n  using SafeMath for uint256;\n\n  struct Donation {\n    uint256 value;\n    uint256 date;\n  }\n  mapping(address => Donation[]) private _donations;\n\n  event DonationReceived(address indexed donor, uint256 value);\n  event Withdraw(uint256 amount);\n\n  string public name;\n  string public linkToCompany;\n  string public images;\n  string public description;\n  string public about;\n\n  address payable public beneficiary;\n\n  uint256 public totalDonations;\n  uint256 public donationsCount;\n\n  constructor(\n    string memory _name,\n    string memory _linkToCompany,\n    string memory _images,\n    string memory _description,\n    string memory _about,\n    address payable _beneficiary,\n    address _custodian\n  ) public {\n    name = _name;\n    linkToCompany = _linkToCompany;\n    images = _images;\n    description = _description;\n    about = _about;\n    beneficiary = _beneficiary;\n    _transferOwnership(_custodian);\n  }\n\n  function setBeneficiary(address payable _beneficiary) public onlyOwner {\n    beneficiary = _beneficiary;\n  }\n\n  function myDonationsCount() public view returns (uint256) {\n    return _donations[msg.sender].length;\n  }\n\n  function donate() public payable {\n    Donation memory donation = Donation({\n      value: msg.value,\n      date: block.timestamp\n    });\n    _donations[msg.sender].push(donation);\n    totalDonations = totalDonations.add(msg.value);\n    donationsCount++;\n\n    emit DonationReceived(msg.sender, msg.value);\n  }\n\n  function myDonations()\n    public\n    view\n    returns (uint256[] memory values, uint256[] memory dates)\n  {\n    uint256 count = myDonationsCount();\n    values = new uint256[](count);\n    dates = new uint256[](count);\n\n    for (uint256 i = 0; i < count; i++) {\n      Donation storage donation = _donations[msg.sender][i];\n      values[i] = donation.value;\n      dates[i] = donation.date;\n    }\n\n    return (values, dates);\n  }\n\n  function withdraw() public onlyOwner {\n    uint256 balance = address(this).balance;\n    beneficiary.transfer(balance);\n    emit Withdraw(balance);\n  }\n\n  fallback() external payable {\n    totalDonations = totalDonations.add(msg.value);\n    donationsCount++;\n  }\n}\n",
  "sourcePath": "/Users/ac12644/Desktop/Put-A-Smile/contracts/Fundraiser.sol",
  "compiler": {
    "name": "solc",
    "version": "0.8.0+commit.c7dfd78e.Emscripten.clang"
  },
  "schemaVersion": "3.4.7",
  "updatedAt": "2022-07-12T10:20:34.082Z",
  "devdoc": {
    "kind": "dev",
    "methods": {
      "owner()": {
        "details": "Returns the address of the current owner."
      },
      "renounceOwnership()": {
        "details": "Leaves the contract without owner. It will not be possible to call `onlyOwner` functions anymore. Can only be called by the current owner. NOTE: Renouncing ownership will leave the contract without an owner, thereby removing any functionality that is only available to the owner."
      },
      "transferOwnership(address)": {
        "details": "Transfers ownership of the contract to a new account (`newOwner`). Can only be called by the current owner."
      }
    },
    "version": 1
  },
  "userdoc": {
    "kind": "user",
    "methods": {},
    "version": 1
  }
}